:020000040800F2
:1000000080040020751F00087D1F00087F1F000866
:1000100000000000000000000000000000000000E0
:10002000000000000000000000000000811F000828
:100030000000000000000000831F0008851F00086A
:10004000871F0008871F0008871F0008871F0008F8
:10005000871F0008871F0008871F0008871F0008E8
:1000600000000000871F0008871F0008871F000886
:10007000871F0008871F0008871F0008871F0008C8
:10008000871F00080000000000000000871F000814
:1000900000000000871F0008871F0008871F000856
:1000A00000000000871F000800000000871F0008F4
:1000B0000348854602F07AF80048004759010008D5
:1000C0008004002070B504460D46E1B2324800F0CD
:1000D0009BFF00BF4021304801F0A8F80028F9D06C
:1000E000204670BD00B589B00121480400F0C8FB6E
:1000F0000121880300F0D2FB01220921C80600F08B
:100100001AF901220A210920C00600F014F903207F
:1001100040020790022108A801700021817001218E
:10012000C1700321417007A90920C00600F082F8C0
:10013000E12040020190002002900390049006907C
:100140000C20059001A9144800F010FE012112486E
:1001500000F0A3FE09B000BDE12040020F49086095
:10016000002048608860C86048610C200861002059
:1001700001F029FD08E00A4801880088401C084B6E
:10018000188008A002F024F8F5E710B5302001F03F
:100190004DFC01F00DFC10BD00380140680000204E
:1001A0000000002073746172743A2025640A0D0007
:1001B00010B504460920C006844209D10121480433
:1001C00000F088FB00210120400400F083FB30E0B8
:1001D0006A48844208D10121000200F07BFB002123
:1001E000200200F077FB24E06548844208D1012119
:1001F000000200F06FFB0021200200F06BFB18E012
:100200006048844209D10121080500F063FB002108
:100210000120000500F05EFB0BE05B48844208D142
:100220000121880500F056FB00210120800500F027
:1002300051FB10BDF0B50A4600210023002400BF89
:100240003DE001258D402B4615681D402C469C4203
:1002500034D11579012D02D01579022D16D185687A
:100260004F000326BE40B543856055794E00B5402A
:10027000866835438560858801268E40B543858034
:10028000858896798E40B6B23543858005684F00E3
:100290000326BE40B543056015794E00B54006689B
:1002A00035430560C5684F000326BE40B543C560B1
:1002B000D5794E00B540C6683543C560491C102944
:1002C000BFD3F0BD314901600021017102214171AC
:1002D00000218171C17170470122120413460B4342
:1002E0001A46C261C161C261C269C26970470246F1
:1002F0000020138A0B4201D0012000E0002070474B
:100300000146088A704702460020938A0B4201D0BA
:10031000012000E0002070470146888A7047816113
:10032000704701857047002A01D0816100E0018596
:10033000704781827047F0B5002300244D07EE0E10
:100340001546B5402B46CD10AE0005462035AD59BB
:100350004E07F70E0F26BE40B543CE10B600074637
:100360002037BD51CD10AE003D46AD591D432C4642
:10037000CD10AD003E467451F0BD000000040048B1
:1003800000080048000C004800140048FFFF00006F
:10039000FB48006801210843F949086008464068A5
:1003A000F8490840F649486008460068F6490840A0
:1003B000F349086008460068012189048843F04930
:1003C0000860084640683F2109048843EC494860BA
:1003D0000846C06A00090001C8620846006BFF2198
:1003E00054318843E64908630846406B40084000A2
:1003F00048630020886070470021E14A91701146EF
:100400008870704710B5024600210023002051116A
:10041000002902D1DA4C23680BE0012902D1D84C23
:10042000236A06E0022902D1D54C636A01E0D44C6C
:10043000636BD106C90E01248C401C4201D00120FF
:1004400000E0002010BD70B500240025002600BF8C
:100450001120FFF7D7FF0646641C052000038442E5
:1004600001D0002EF4D01120FFF7CCFF002801D0DE
:10047000012500E00025284670BD01460020C04A45
:100480001068F82302469A431046CA001043BC4A3B
:1004900010607047002806D0B9490968012211434D
:1004A000B74A116005E0B649096849084900B44AED
:1004B0001160704701460020B14A506BF823024694
:1004C0009A431046CA001043AD4A50637047002853
:1004D00006D0AB49496B01221143A94A516305E09B
:1004E000A749496B49084900A54A5163704700284C
:1004F00006D0A349496B04229143A14A516305E008
:100500009F49496B042211439D4A516370479C499E
:10051000096A490849009A4A11621146096A042287
:100520009143974A11621146096A0143116270476B
:100530009349096A18229143914A11621146096A46
:10054000014311627047002806D08D49496A012293
:1005500011438B4A516205E08949496A49084900BB
:10056000874A51627047864A52683D231B049A436A
:10057000834B5A601A46526803460B431A43804B1A
:100580005A607047002807D07D4909680122120689
:1005900011437B4A116006E079490968012212067D
:1005A0009143774A1160704701460020744AD06A2F
:1005B0000009000102460A431046714AD0627047A2
:1005C000002807D06E4909680122D20411436C4A01
:1005D000116006E06A4909680122D2049143684A21
:1005E000116070476649C871704701460020644A2F
:1005F00050688008800002460A431046604A5060F6
:1006000070475F4840680C21084070470146002051
:100610005B4A5068F02302469A43104602460A435A
:100620001046574A5060704701460020544A5068AF
:1006300007231B0202469A43104602460A4310460D
:100640004F4A506070474E494968012292039143D6
:100650004B4A51601146496882B21143484A516081
:100660001146096B92159143454A11631146096B76
:10067000020C1143424A116370474149096B402201
:1006800091433F4A11631146096B0143116370475F
:100690003B49096B10229143394A11631146096B9A
:1006A0000143116370473649096B89088900344A50
:1006B00011631146096B014311637047FEB504468F
:1006C0000025002600200190009000272C4840685B
:1006D0000C2108400546002D04D0042D05D0082D1E
:1006E00028D105E02948206027E02848206024E040
:1006F000234840680F218904084006462048406886
:100700000121090408400190B00C861C01980028C2
:1007100003D11F48704320600BE01948C06A0007EE
:10072000000F401C00901948009901F029FD70430A
:10073000206002E01548206000BF00BF10484068FC
:10074000F021084005462D091248475D2068F84011
:1007500060600B48406807210902084005462D0AE1
:100760000C48475D6068F840A0600548006BFF21B9
:1007700001310840884211D00748E0601CE00000C9
:10078000001002400CB8FFF8FFFFF6FE00127A00DE
:1007900000093D0002000020809FD5007448406899
:1007A000012189030840884203D0A0684008E06026
:1007B00002E0A0688008E0606D48006B40210840BE
:1007C000402802D06B48206102E00120C003206174
:1007D0006748006B10210840102802D0664860610D
:1007E00001E0206860616248006B8007800F02D1E1
:1007F000A068A06119E05E48006B8007800F0128A7
:1008000002D12068A06110E05948006B8007800F7A
:10081000022802D18003A06107E05548006B8007E1
:10082000800F032801D15448A061FEBD5049096AD8
:1008300001434F4A11627047002807D04C49096AAA
:100840000122D20311434A4A116206E04849096A6B
:100850000122D2039143464A11627047002807D013
:100860004349096A012212041143414A116206E018
:100870003F49096A0122120491433D4A11627047BF
:10088000002905D03A4A52690243394B5A6104E0C3
:10089000374A52698243364B5A617047002905D066
:1008A000334A92690243324B9A6104E0304A9269BA
:1008B00082432F4B9A617047002905D02C4AD26998
:1008C00002432B4BDA6104E0294AD2698243284B68
:1008D000DA617047002905D0254A926A0243244B09
:1008E0009A6204E0224A926A8243214B9A627047DC
:1008F000002905D01E4AD26802431D4BDA6004E08D
:100900001B4AD26882431A4BDA607047002905D02F
:10091000174A12690243164B1A6104E0144A12691D
:100920008243134B1A617047002905D0104A527A4E
:1009300002430F4B5A7204E00D4A527A82430C4B29
:100940005A7270470A48406A01210906084308495B
:100950004862704701460020054A92680A4201D069
:10096000012000E0002070470149887270470000B4
:10097000001002401280000000127A0010B50446F8
:10098000E248844208D101218014FFF7B1FF002121
:10099000A014FFF7ADFF0AE0DD48844207D1012132
:1009A0000014FFF7B3FF00212014FFF7AFFF10BDC5
:1009B0000021018041800721090281800021C1803E
:1009C000018141818181C18107210182704710B578
:1009D00000220288C1239B011A400B88CC89234343
:1009E000CC8823430C8923434C8923438C8923439C
:1009F0001A4302808288C74B1A408B881A43828030
:100A00000B8A03820288C44B1A404B881A43028027
:100A1000838BC24C2340838310BD00210180418021
:100A20008180C18002218160002181817047F0B501
:100A30008DB005460C4600200C9002270B9001203B
:100A40000A90002600200290A88BB249BF390840C6
:100A5000A88302202884A88B0C90A068022802D1C9
:100A600000200B9038E0A088002802D101200A90D5
:100A700001E002200A9003A8FFF720FE03980290ED
:100A8000E088C11FFF39FA390AD1A168029A120A17
:100A90000A235A43104601F073FB401D86B20CE056
:100AA0000A984101029801F06BFB0A21484301902A
:100AB000A16801F065FB401D86B20A21304601F0B5
:100AC0005FFB0646F007C00F0B900B98301AC0036F
:100AD000070C0B9800020B90022F01DBFF2F02DDA9
:100AE000022700200B90E0880B99084338432884A4
:100AF000A088A1890843618808432188084301210F
:100B0000C90208430C9908430C900C98A8830DB0B7
:100B1000F0BD002904D0028840231A43028004E07B
:100B200002887D4B3C3B1A4002807047002904D06C
:100B3000828810231A43828004E08288764B0C3B23
:100B40001A4082807047002905D0828B01239B02C6
:100B50001A43828303E0828B714B1A408283704771
:100B60000A46002181886B4B19400B4613431946F6
:100B70008180704782886B4B1A40828082880A434A
:100B80008280704701229203914204D102880B4671
:100B90001A43028003E00288634B1A4002807047C8
:100BA0005D4AFC3A914205D00288FF2301331A4383
:100BB000028004E00288584BFC3B1A4002807047D8
:100BC000002904D0828804231A43828003E08288AB
:100BD000514B1A4082807047002904D08288082334
:100BE0001A43828004E082884B4B1B1F1A4082808C
:100BF0007047002202460C321170704781817047A5
:100C0000014600220A460C32107870470146888956
:100C100070470288414B1A40028002880A430280D2
:100C20007047002905D0028801235B031A43028024
:100C300003E002883D4B1A40028070470188012280
:100C4000120311430180704702460020012901D0A0
:100C5000108B00E0908A70470146088A7047002A8E
:100C600003D083880B43838002E083888B43838097
:100C7000704782882E4B1A40828082880A43828085
:100C8000704730B5002400230C110125A540ABB2FC
:100C9000002A03D085881D43858002E085889D4316
:100CA000858030BD014608890322D202104070477A
:100CB0000146088903225202104070470246002074
:100CC00013890B4201D0012000E000207047CA4385
:100CD00002817047F0B50246002000240023002561
:100CE0000F073F0F0126BE40B4B20B1101269E40F4
:100CF000B3B296881E4035461689264203D0002D91
:100D000001D0012000E00020F0BD000000300140D3
:100D100000380040FFF00000FBFF0000FFF700007C
:100D2000FFFB0000FFEF0000FFBF0000FFDF00003F
:100D3000FF9F000010B50446F648844209D1012106
:100D40008803FFF7D5FD002101208003FFF7D0FDC8
:100D50000BE0F148844208D101214804FFF7D6FD99
:100D6000002101204004FFF7D1FD10BDF0B589B08E
:100D700005460E4600240020089000BF00BF2868EA
:100D80004008400028606C6803210903204688431E
:100D90000446B06804436C602C68E0480440F16885
:100DA000706808433169084304432C60AC68032130
:100DB000090220468843044670690443AC606846D3
:100DC000FFF77CFCD348854202D10698089001E0E9
:100DD0000298089028680121C903084209D03268A6
:100DE00051001923089A5A43104601F0C9F90746E1
:100DF00008E0326891001923089A5A43104601F01E
:100E0000BFF907466421384601F0BAF90401200908
:100E100064214843381A079028680121C903084211
:100E20000AD00799C90008463230642101F0A8F9B8
:100E30004007400F044309E0079909010846323092
:100E4000642101F09DF90007000F0443AC8109B053
:100E5000F0BD4B21C9010160002141608160C1608A
:100E60000C21016100214161704710B500224268E8
:100E70000F2424021346A3431A464C680B682343ED
:100E80008C682343CC6823431A43426010BD002181
:100E9000016041608160C1607047002904D0026830
:100EA00001231A43026003E0026852085200026004
:100EB0007047002A03D003680B43036002E0036815
:100EC0008B4303607047002905D002680123DB03D0
:100ED0001A43026004E002680123DB039A430260C4
:100EE0007047002905D082680123DB021A43826023
:100EF00004E082680123DB029A4382607047002984
:100F000005D042680123DB041A43426004E04268D2
:100F10000123DB049A4342607047002905D04268F0
:100F200001239B041A43426004E0426801239B04AE
:100F30009A4342607047002A03D043680B434360E2
:100F400002E043688B4343607047002905D0426844
:100F50000123DB031A43426004E042680123DB0300
:100F60009A4342607047002905D042680123DB059F
:100F70001A43426004E042680123DB059A43426061
:100F800070474269120E1206426142690A43426189
:100F90007047028AFF231B021A400282028A0A4318
:100FA00002827047002904D0026802231A430260BB
:100FB00003E0026802239A430260704782680323B9
:100FC0001B059A43826082680A4382607047002949
:100FD00005D0426801231B051A43426004E04268C1
:100FE00001231B059A4342607047426803235B0557
:100FF0009A43426042680A4342607047C1690122D5
:10100000D2039143C1617047CA05D20D0285704772
:101010000146888CC005C00D704742681202120A52
:10102000426042680B061A4342607047002905D0AF
:10103000026801235B031A43026004E00268012393
:101040005B039A430260704702680123DB029A4304
:10105000026002680A4302607047426810239A43A4
:10106000426042680A4342607047426820239A43C4
:10107000426042680A4342607047002905D04268D6
:1010800001239B031A43426004E0426801239B034F
:101090009A4342607047002904D0826808231A43AB
:1010A000826003E0826808239A4382607047028A64
:1010B000D2B20282028A0B021A43028270470029CE
:1010C00004D0826820231A43826003E082682023D0
:1010D0009A4382607047002904D0826810231A4323
:1010E000826003E0826810239A43826070478268BE
:1010F00007235B049A43826082684B041A43826030
:10110000704742691202120A426142690B061A4391
:10111000426170470038014000440040F3E9FFFF9E
:10112000826804239A43826082680A43826070471F
:10113000002904D0826802231A43826003E0826897
:1011400002239A4382607047002905D082680123F8
:101150009B031A43826004E0826801239B039A4345
:101160008260704782680123DB039A438260826851
:101170000A438260704702681F235B059A4302603E
:1011800002684B051A430260704702681F231B0464
:101190009A43026002680B041A4302607047002AF7
:1011A00003D083680B43836002E083688B438360D2
:1011B0007047826801235B039A43826082680A4316
:1011C00082607047F8B5034600240026009600258B
:1011D000002018460E04340ECEB200960127009E61
:1011E000B7403D46022C01D1001D02E0032C00D186
:1011F0000830002A03D006682E43066002E0066825
:10120000AE430660F8BD002A03D0038B0B43038373
:1012100002E0038B8B4303837047826801231B0327
:101220009A43826082680A438260704702460020C7
:10123000D3690B4201D0012000E000207047016219
:10124000704770B502460B4600240021002500209F
:101250001E04350ED9B201268E403146012D02D131
:101260001668314006E0022D02D15668314001E097
:10127000966831401C0C0126A6403446D66934409D
:10128000002903D0002C01D0012000E0002070BD17
:1012900010B5002300220B0C01249C402246026260
:1012A00010BD00003D483E4908600020486088604D
:1012B000C8603C4848617047002139498279002A5A
:1012C00035D00A46126803689A430B461A600A46EC
:1012D000526803689A430B465A60027951180A68AB
:1012E00003681A430A602E4A926803689A432C4B9B
:1012F0009A601A46D26803689A43294BDA604279A9
:10130000102A0CD11A46926803681A43244B9A603B
:101310001A46D26803681A43214BDA600DE020496F
:10132000427951180A6803681A430A6005E0027995
:1013300051180A6803689A430A60704700210160E7
:1013400001710C21417100218171704714490969B3
:101350000143134A1161704701460020104A526947
:101360000A4201D0012000E0002070470C4948618A
:101370007047014600200022094B1B680B401A46AB
:10138000074B5B690B4203D0002A01D0012000E02B
:101390000020704702494861704700000000940F28
:1013A00000040140FFFF6B0010B50446F948844279
:1013B00009D101214805FFF7A9FA002101204005C4
:1013C000FFF7A4FA08E001218805FFF79FFA002142
:1013D00001208005FFF79AFA10BD10B50A460021DA
:1013E00003685B085B0003600168EB4B194094687D
:1013F000240253682343194301600F242406136811
:10140000A343036103680124234303600021816037
:10141000C16014699369234319468160836801247C
:10142000E40323438360D16803680B43036041688E
:10143000DA4B194053691943416010BD0021016026
:1014400041608160C16001610121C90341610021E6
:1014500081617047002904D0026801231A430260A9
:1014600003E002685208520002607047002905D06C
:10147000026801235B031A43026004E0026801234F
:101480005B039A4302607047002A03D003680B4352
:10149000036002E003688B4303607047002905D0B6
:1014A000026801235B049A43026004E0026801239E
:1014B0005B041A4302607047002905D002680123CB
:1014C0009B041A43026004E0026801239B049A43D0
:1014D00002607047002905D0C2680123DB031A436C
:1014E000C26004E0C2680123DB039A43C260704714
:1014F00070B50B460021C168A94C2140FE241C4058
:1015000015020726360235402C432143C16070BDC9
:10151000002905D002680123DB041A43026004E0BD
:1015200002680123DB049A4302607047002905D05A
:10153000026801231B041A43026004E002680123CD
:101540001B049A43026070470A4600214168890AD9
:10155000890293059B0D194341607047002905D00E
:1015600042680123DB021A43426004E0426801231F
:10157000DB029A4342607047002905D0426801238C
:101580005B061A43426004E0426801235B069A430B
:1015900042607047002905D0426801231B061A43A8
:1015A000426004E0426801231B069A434260704790
:1015B00010B50A4600214168FF2424040B46A343CA
:1015C0001946130423401943416010BD002905D179
:1015D000426801239B029A43426004E0426801236F
:1015E0009B021A4342607047002905D042680123DC
:1015F0005B031A43426004E0426801235B039A43A1
:1016000042607047002905D0426801239B031A43BA
:10161000426004E0426801239B039A4342607047A2
:10162000002905D0426801231B031A43426004E0ED
:10163000426801231B039A4342607047002905D08A
:1016400042680123DB039A43426004E042680123BD
:10165000DB031A4342607047014688697F225204C7
:101660001040000C704710B50146002200208B6925
:101670000124240423401A46002A00D101E001205D
:10168000800210BDF0B50C4600214168454D29404F
:10169000A505AD0D1604FF273F043E4035431D430D
:1016A000059E354329434160F0BD002905D00268FD
:1016B00001239B051A43026004E0026801239B0595
:1016C0009A4302607047002905D042690123DB0379
:1016D0001A43426104E042690123DB039A434261F9
:1016E0007047002905D042690123DB071A43426194
:1016F00003E042695200520842617047002905D058
:10170000426901231B031A43426104E04269012339
:101710001B039A43426170470A4600214169090B45
:10172000090313051B0D19434161704710B50A46A3
:10173000002141691C4B194013041B4CE443234016
:101740001943416110BD002905D002680123DB0562
:101750001A43026004E002680123DB059A43026039
:101760007047002905D0026801239B061A430260D6
:1017700004E0026801239B069A4302607047014619
:10178000086AC0B270470246002313465B18186807
:101790007047000000540040FFE0CF00FF7FFF07CC
:1017A00001F8FFFF009800FCFFFF00F08162704726
:1017B0000146486AC0B27047002A03D003680B4351
:1017C000036002E003688B430360704710B5024674
:1017D0000023002093691C460C402346002B01D0B7
:1017E000012000E0002010BDC161704710B5024625
:1017F0000023002093691C460C402346002B01D097
:10180000012000E0002010BDC161704700218278F6
:10181000002A27D0274A03231B02D21803789B10E3
:101820009B00D15802789207D30EFF229A400B46B4
:101830009343194642789207120E03789B07DB0EFA
:101840009A4011431B4A03231B02D21803789B10B2
:101850009B00D1500278D306DB0E01229A40154B33
:101860001A6007E00278D306DB0E01229A40114B82
:1018700080331A607047002905D00F4A126902436D
:101880000D4B1A6104E00C4A126982430A4B1A613B
:101890007047042806D10949096904221143074AFF
:1018A000116105E00549096904229143034A116168
:1018B0007047000000E100E000ED00E000E000E023
:1018C0003A4800688007800F384908600020886027
:1018D00000213648C160016141618069FF21013109
:1018E0000843324988617047014600202F4A10683A
:1018F0008008800002460A4310462C4A1060704758
:10190000002905D0294A12680243284B1A6004E0D6
:10191000264A12688243254B1A607047002905D079
:10192000224A12680243214B1A6004E01F4A1268DF
:1019300082431E4B1A60704730B500228B071C0F84
:101940000F23A3401A46194B08338C10A4001B59CF
:101950009343164C08348D10AD00635123468C1010
:10196000A4001B598C07250F0446AC4023430F4CA1
:1019700008348D10AD00635130BD0C4989690143B5
:101980000A4A9161704701460020084A9269FF2384
:1019900001331A4201D0012000E0002070470349C2
:1019A00089690143014A91617047000000000140CC
:1019B0001CB501214804FEF763FF102000900121AF
:1019C0006846417101710021817169460920C00694
:1019D000FEF730FC1CBD10B510210920C006FEF733
:1019E000A0FC10BD10B510210920C006FEF797FC21
:1019F00010BD0000284909884143491E274A51610A
:101A0000012191611146096901221143234A1161A3
:101A100000BF22490969012212041142F9D01F496D
:101A20000969490849001D4A116170471B49096944
:101A300004229143194A1161114609690222914316
:101A4000164A1161C217520F1218D210144B1A7095
:101A5000194609787D22D20051430F4A1180704700
:101A60000F4909784143491E0C4A51610121916196
:101A70001146096901221143084A116100BF074953
:101A80000969012212041142F9D00449096949087F
:101A90004900024A116170471200002000E000E096
:101AA000140000201CB50446A100FE4A5058012134
:101AB000FEF7E6FE6000FC49085A009001216846E6
:101AC000017100218171C17103214171A100F74AA7
:101AD00050586946FEF7AEFB6000F349085AA10072
:101AE000F24A515888611CBD4100EF4A515A8200A8
:101AF000EE4B9A58118570474100EB4A515A8200CB
:101B0000EA4B9A58916170478100E84A5158898A96
:101B10004200E54B9A5A51408200E44B9A58918218
:101B2000704730B585B004460D46A100E04A5058D4
:101B30000121FEF7A5FE01210846FEF7AFFE0021B8
:101B400068460174C1746000DA49085A0390A10024
:101B5000D94A505803A9FEF76DFB012D26D1D74A6B
:101B6000115DD74A105DFFF7E7FE6000D549085ABE
:101B70000190002069460872002C04D0012C02D08C
:101B80000820487202E00C2069464872012168462C
:101B9000817201A8FFF790FBCB48015D6846017098
:101BA0000321417001218170FFF730FE05B030BD87
:101BB00010B504466200BF4B995AA200BE4B98581C
:101BC000FEF795FB10BD7CB504460D46A100BF4A4B
:101BD0005158A200BE4B9A58114308460121FEF706
:101BE0004FFEA100BB4A50580121FEF757FEBA4BE9
:101BF0001A5DBA4B195DA300B94EF058FEF79BFB76
:101C0000B84B1A5DB84B195DA300B84EF058FEF7FB
:101C100092FB6000B649085A0090022168460171A3
:101C200001214171002181710121C171A100AC4AE2
:101C300050586946FEF7FEFA6000AE49085A009017
:101C4000A100324650586946FEF7F4FAA100AA4AAC
:101C500050582946FFF78AF8A100A74A5058012199
:101C6000FFF71BF97CBD1CB50021A448FEF751FF0E
:101C7000A248FEF783FE002101200003FEF70EFEBE
:101C800020200090002168460171C1716946092039
:101C9000C006FEF7CFFA1020009069469848FEF77C
:101CA000C9FA8020009069460920C006FEF7C2FAF2
:101CB0002020009069469348FEF7BCFA0120C0033B
:101CC000009069468E48FEF7B5FA1CBD00B587B096
:101CD000012123204004FEF7D3FD01210803FEF774
:101CE000DDFD202005900221684601760321417622
:101CF000002181760121C17605A90920C006FEF7E1
:101D000099FA1020059005A97D48FEF793FA8020E6
:101D1000059005A90920C006FEF78CFA2020059041
:101D2000012168460176002181760121C176417644
:101D300005A97448FEF77EFA0120C0030590002132
:101D4000684601760121C17605A96D48FEF772FA51
:101D5000002205210920C006FEF7EDFA0022042129
:101D60006748FEF7E8FA002207210920C006FEF7BF
:101D7000E2FA6248FEF702FE002168460180FF2178
:101D8000053141800721090281800221C1800121A2
:101D900001814902418100218181C18107210182A4
:101DA00069465648FEF713FE012109035348FEF722
:101DB000E1FE01215148FEF7ACFE07B000BD1CB5A5
:101DC00000215148FFF746FB4F48FFF7EDFA00218D
:101DD00001204005FEF770FD40200090002168467C
:101DE0000171C17169464648FEF724FA80200090CF
:101DF00069464348FEF71EFA202000906946404895
:101E0000FEF718FA1CBD1CB501214805FEF754FD6C
:101E10000020FEF73DFC01218804FEF731FD012280
:101E200006213748FEF787FA012207213448FEF7DA
:101E300082FA032205213248FEF77DFA4020009005
:101E40000221684601714171012181710021C17136
:101E500069462B48FEF7EEF9802000906946284835
:101E6000FEF7E8F92020009069462548FEF7E2F9E0
:101E70001CBD1CB500212448FFF7ECFA2248FFF7EF
:101E800093FA002101204005FEF716FD4020009046
:101E9000002168460171C17169461948FEF7CAF907
:101EA000802033E068250008602500081800002025
:101EB000882500087825000828000020B92500089A
:101EC000B2250008A4250008C0250008CC2500087C
:101ED000D0250008C8250008DA250008D825000804
:101EE00048000020DB250008D92500084C00002010
:101EF000D4250008D6250008440000200030014009
:101F00000004004800140048005400400090694656
:101F10001748FEF78FF91CBD1CB50020FEF7B8FB73
:101F200001218804FEF7ACFC01214805FEF7C4FC42
:101F3000012206210E48FEF7FEF9012207210C4876
:101F4000FEF7F9F9402000900221684601714171C5
:101F5000012181710021C17169460548FEF76AF9C6
:101F60008020009069460248FEF764F91CBD00001D
:101F7000000400480448804704480047FEE7FEE7A5
:101F8000FEE7FEE7FEE7FEE759200008B100000883
:101F900000210020724A126801231B041A43704B6F
:101FA0001A6000BF6E4A126801235B041A40104693
:101FB000491C002803D1052212039142F2D1684A3C
:101FC000126801235B041A4201D0012000E00020C6
:101FD000012840D1634A126810231A43614B1A60EA
:101FE0001A46126801231A435E4B1A605C4A526813
:101FF0005B4B5A601A4652685A601A4652683F2331
:102000001B049A43564B5A601A46526811231B040C
:102010001A43534B5A601A46126803061A43504B30
:102020001A6000BF4E4A126801235B061A42F9D0BB
:102030004B4A526892089200494B5A601A465268BD
:1020400002231A43464B5A6000BF454A52680C238C
:102050001A40082AF9D1704710B54148006801219B
:1020600008433F490860084640683F4908403C49EA
:102070004860084600683D490840394908600846FC
:102080000068012189048843354908600846406892
:102090003F2109048843324948600846C06A000964
:1020A0000001C8620846006BFF21543188432C4967
:1020B00008630846406B4008400048630020886081
:1020C000FFF766FF10BDF8B50025002400260027A5
:1020D000234840680C2108400546002D04D0042DFB
:1020E00006D0082D2AD107E021482249086029E0BE
:1020F0001F482049086025E0194840680F218904DD
:102100000840044616484068012109040840064674
:10211000A00C841C002E04D11748604315490860A8
:102120000BE00F48C06A0007000F471C39461048F3
:1021300000F026F860430F49086003E00C480D49A1
:10214000086000BF00BF06484068F0210840000951
:102150000A490D5C07480068E84006490860F8BD78
:1021600000100240002002400CB8FFF8FFFFF6FE0E
:1021700000127A005000002000093D0054000020A9
:1021800030B50B46014600202022012409E00D460F
:10219000D5409D4205D31D469540491B2546954097
:1021A00040191546521E002DF1DC30BD064C0125AC
:1021B000064E05E02046E36807C82B4398471034D5
:1021C000B442F7D3FDF778FFDC250008FC250008B2
:1021D0000FB410B503A9044B044A029800F018F894
:1021E00010BC08BC04B01847C500000864000020FB
:1021F00002E008C8121F08C1002AFAD170477047D0
:10220000002001E001C1121F002AFBD1704700002D
:10221000FFB58FB005460026E7E025287ED10024D3
:102220006D1CBB4A0294012100942B780846203B88
:1022300098400346134202D004436D1CF5E728780A
:102240002A280ED00222287801463039092916D8CA
:1022500002990A2359433039401814436D1C0290E7
:10226000F1E7109802C802911090002904DA0120C9
:102270004003044348420290022004436D1C287826
:102280002E2817D1042004436D1C28782A280CD14D
:1022900010986D1C02C8009110900BE000990A2262
:1022A0005143303940186D1C009028780146303970
:1022B0000929F3D928786C2810D006DC4C281AD0CC
:1022C00068280ED06A2817D104E0742813D07A2821
:1022D00012D110E00120400504430CE00121090562
:1022E00001E0032109050C436978814203D10120F3
:1022F0006D1C000524186D1C287869287ED007DC29
:10230000002878D0632829D0642807D176E005E03A
:102310006E2808D073282DD075286BD0129A119989
:102320009047761C60E06002400F022809D0032825
:102330000DD00428109801680DD0001D0E6010907B
:1023400052E01098F21702C80E604A60F7E7109842
:1023500002C80E80F3E7001D0E70F0E710986A4681
:102360000178001D117310900020507303A8019094
:10237000012005E0109802C8019110900020C04390
:1023800061070CD5002700E07F1C00998F420FDA0F
:102390008742F9DB0199C95D0029F5D108E00027E2
:1023A00000E07F1C8742FCDB0199C95D0029F8D160
:1023B00002982146C01B0290129B119A00F0BAF8B5
:1023C0008019C61907E0019801990078491C01910C
:1023D000129A119990477F1EF5D22146129B119AAD
:1023E000029800F097F886196D1C2878002802D012
:1023F00013E700E022E0304613B0F0BD0A20019060
:10240000109901C910916102490F032900D100B24E
:10241000042900D140B2002802DA40422D2102E016
:10242000210504D52B216A461173012103E0E10740
:1024300011D02021F7E70CAF0C9114E00A20019095
:10244000109901C910916102490F032900D180B28E
:10245000042900D1C0B20021EDE70199FFF790FEF9
:1024600030317F1E39700028F7D104A8C01B2030FE
:102470000190600704D5012000048443009801E026
:10248000012000900199884201DD401A00E00020FF
:10249000411800900C9809180298401A0290E00325
:1024A00006D42146129B119A029800F043F886192F
:1024B000002008E00D9903A8405C129A11999047FA
:1024C0000D98761C401C0C990D908842F2DBE003BD
:1024D0000CD52146129B119A029800F02BF8861910
:1024E00004E0129A302011999047761C0099481EFA
:1024F00000900029F5DC05E03878129A7F1C1199CC
:102500009047761C0199481E01900029F4DC64E78D
:1025100009280100F8B5044600251E461746880420
:1025200004D405E039462020B0476D1C641EF9D55F
:102530002846F8BDFFB50446002581B01E46C803F5
:1025400001D5302700E02027880404D505E038466F
:102550000399B0476D1C641EF9D5284605B0F0BD3F
:10256000000400080010040000000800000008003B
:10257000000008000000100000200001000100021F
:10258000400080000100000000000800000004007E
:10259000000008000000080000000800000008001B
:1025A0000000020000200001000100024000800045
:1025B0000100020102020202000D080809060700DC
:1025C000070707070707050000400000000002009A
:1025D0000000020000020004090A0101FC250008B5
:1025E0000000002068000000F021000864260008B8
:1025F000680000201804000000220008000000000D
:102600000000010203040102030406070809000098
:1026100000000000000800480008004800080048CA
:10262000000C00480008004800040048000800486A
:102630000008004800080048000800480000004862
:10264000003801400000004800000048006CDC0237
:102650000000000000000000010203040607080952
:042660000000000076
:04000005080000B13E
:00000001FF
