:020000040800F2
:100000008004002011330008193300081B33000856
:1000100000000000000000000000000000000000E0
:100020000000000000000000000000001D33000878
:1000300000000000000000001F330008213300080A
:100040002333000823330008233300082333000838
:100050002333000823330008233300082333000828
:100060000000000023330008233300082333000876
:100070002333000823330008233300082333000808
:1000800023330008000000000000000023330008B4
:100090000000000023330008233300082333000846
:1000A0000000000023330008000000002333000894
:1000B0000348854603F048FA00480047BD010008A0
:1000C0008004002070B504460D46E1B2344801F0CA
:1000D00037F800BF4021324801F044F90028F9D038
:1000E000204670BD00B589B00121480400F064FCD1
:1000F0000121880300F06EFC01220921C80600F0EE
:10010000B6F901220A210920C00600F0B0F9032047
:1001100040020790022108A801700021817001218E
:10012000C1700321417007A90920C00600F01EF923
:10013000E12040020190002002900390049006907C
:100140000C20059001A9164800F0ACFE01211448CE
:1001500000F03FFF09B000BD10B5E1204002114999
:100160000860002048608860C86048610C20086111
:10017000002002F0F6FE10BDFFF7EEFF08E00A488F
:1001800001880088401C084B188008A003F0EEF995
:10019000F5E710B5302001F0E5FC01F0A5FC10BD3D
:1001A0000038014068000020000000207374617274
:1001B000743A2025640A0D00704770471CB502F0A0
:1001C00053FDFFF7C9FF052001F0B3FD2349087077
:1001D00008460078012803D121A003F0C7F904E004
:1001E00024A003F0C3F900201CBD022001F060FE32
:1001F0001A49087008460078012802D124A003F0AB
:10020000B5F9002001F0D9FE1449087008460078BD
:10021000012802D123A003F0A9F9072001F0AFFEC5
:100220000E49087008460078012802D123A003F087
:100230009DF912E0684602F0E5FB0849087008469F
:100240000078012809D168460423C35E0222825E39
:100250000021415E1EA003F089F9EBE702000020B7
:100260000A0D5345545F4F44525F4F4B20202020CE
:100270000A0D00000A0D5345545F4F44525F46413A
:10028000494C212121202020200A0D0000000000DF
:100290000A5345545F4D4F44455F4F4B202020206B
:1002A0000A0D00000A5345545F46554C4C534341D8
:1002B0004C455F4F4B0A0D00000000005345545F52
:1002C000415849535F4F4B20202020200A0D000049
:1002D000583D25366420593D253664205A3D253643
:1002E00064200D0A0000000010B504460920C00675
:1002F000844209D10121480400F088FB002101203B
:10030000400400F083FB30E06A48844208D10121B8
:10031000000200F07BFB0021200200F077FB24E0CC
:100320006548844208D10121000200F06FFB0021E2
:10033000200200F06BFB18E06048844209D10121E3
:10034000080500F063FB00210120000500F05EFBC2
:100350000BE05B48844208D10121880500F056FB80
:1003600000210120800500F051FB10BDF0B50A46C8
:1003700000210023002400BF3DE001258D402B46D5
:1003800015681D402C469C4234D11579012D02D0B0
:100390001579022D16D185684F000326BE40B5435E
:1003A000856055794E00B5408668354385608588FF
:1003B00001268E40B5438580858896798E40B6B2F9
:1003C0003543858005684F000326BE40B543056070
:1003D00015794E00B540066835430560C5684F0085
:1003E0000326BE40B543C560D5794E00B540C6680A
:1003F0003543C560491C1029BFD3F0BD31490160A8
:10040000002101710221417100218171C171704788
:100410000122120413460B431A46C261C161C26134
:10042000C269C269704702460020138A0B4201D09C
:10043000012000E0002070470146088A704702460C
:100440000020938A0B4201D0012000E00020704779
:100450000146888A70478161704701857047002A8C
:1004600001D0816100E00185704781827047F0B55D
:10047000002300244D07EE0E1546B5402B46CD1047
:10048000AE0005462035AD594E07F70E0F26BE408B
:10049000B543CE10B60007462037BD51CD10AE0093
:1004A0003D46AD591D432C46CD10AD003E4674511E
:1004B000F0BD00000004004800080048000C00489F
:1004C00000140048FFFF0000FB48006801210843BA
:1004D000F949086008464068F8490840F64948600C
:1004E00008460068F6490840F34908600846006875
:1004F000012189048843F0490860084640683F218B
:1005000009048843EC4948600846C06A00090001B4
:10051000C8620846006BFF2154318843E6490863EE
:100520000846406B400840004863002088607047E0
:100530000021E14A917011468870704710B502465B
:100540000021002300205111002902D1DA4C236838
:100550000BE0012902D1D84C236A06E0022902D11E
:10056000D54C636A01E0D44C636BD106C90E0124FB
:100570008C401C4201D0012000E0002010BD70B56D
:1005800000240025002600BF1120FFF7D7FF0646F4
:10059000641C05200003844201D0002EF4D01120F9
:1005A000FFF7CCFF002801D0012500E000252846F8
:1005B00070BD01460020C04A1068F82302469A43E5
:1005C0001046CA001043BC4A10607047002806D08D
:1005D000B949096801221143B74A116005E0B649DB
:1005E000096849084900B44A116070470146002073
:1005F000B14A506BF82302469A431046CA00104392
:10060000AD4A50637047002806D0AB49496B0122C0
:100610001143A94A516305E0A749496B49084900BC
:10062000A54A51637047002806D0A349496B0422AC
:100630009143A14A516305E09F49496B042211434C
:100640009D4A516370479C49096A490849009A4A82
:1006500011621146096A04229143974A11621146B8
:10066000096A0143116270479349096A182291434C
:10067000914A11621146096A0143116270470028CC
:1006800006D08D49496A012211438B4A516205E027
:100690008949496A49084900874A51627047864A30
:1006A00052683D231B049A43834B5A601A46526892
:1006B00003460B431A43804B5A607047002807D00B
:1006C0007D4909680122120611437B4A116006E048
:1006D00079490968012212069143774A11607047EF
:1006E00001460020744AD06A0009000102460A430C
:1006F0001046714AD0627047002807D06E490968D9
:100700000122D20411436C4A116006E06A4909686B
:100710000122D2049143684A116070476649C8714A
:10072000704701460020644A5068800880000246F5
:100730000A431046604A506070475F4840680C2189
:1007400008407047014600205B4A5068F02302468B
:100750009A43104602460A431046574A5060704773
:1007600001460020544A506807231B0202469A4360
:10077000104602460A4310464F4A506070474E49A1
:1007800049680122920391434B4A516011464968DE
:1007900082B21143484A51601146096B9215914348
:1007A000454A11631146096B020C1143424A116319
:1007B00070474149096B402291433F4A11631146FA
:1007C000096B0143116370473B49096B1022914348
:1007D000394A11631146096B014311637047364969
:1007E000096B89088900344A11631146096B01437A
:1007F00011637047FEB504460025002600200190D5
:10080000009000272C4840680C2108400546002D28
:1008100004D0042D05D0082D28D105E029482060FA
:1008200027E02848206024E0234840680F218904FD
:10083000084006462048406801210904084001900C
:10084000B00C861C0198002803D11F48704320601B
:100850000BE01948C06A0007000F401C00901948BF
:10086000009902F05BFE7043206002E015482060B2
:1008700000BF00BF10484068F021084005462D0920
:100880001248475D2068F84060600B4840680721C7
:100890000902084005462D0A0C48475D6068F8408B
:1008A000A0600548006BFF2101310840884211D04B
:1008B0000748E0601CE00000001002400CB8FFF8A0
:1008C000FFFFF6FE00127A0000093D000300002041
:1008D000809FD50074484068012189030840884200
:1008E00003D0A0684008E06002E0A0688008E060F3
:1008F0006D48006B40210840402802D06B482061C1
:1009000002E00120C00320616748006B102108400D
:10091000102802D06648606101E02068606162488A
:10092000006B8007800F02D1A068A06119E05E48CB
:10093000006B8007800F012802D12068A06110E0C1
:100940005948006B8007800F022802D18003A06104
:1009500007E05548006B8007800F032801D15448F9
:10096000A061FEBD5049096A01434F4A11627047B8
:10097000002807D04C49096A0122D20311434A4A90
:10098000116206E04849096A0122D2039143464AAE
:1009900011627047002807D04349096A01221204F6
:1009A0001143414A116206E03F49096A01221204DB
:1009B00091433D4A11627047002905D03A4A526975
:1009C0000243394B5A6104E0374A52698243364B3D
:1009D0005A617047002905D0334A92690243324B6D
:1009E0009A6104E0304A926982432F4B9A617047C2
:1009F000002905D02C4AD26902432B4BDA6104E06E
:100A0000294AD2698243284BDA617047002905D010
:100A1000254A926A0243244B9A6204E0224A926A6F
:100A20008243214B9A627047002905D01E4AD26842
:100A300002431D4BDA6004E01B4AD26882431A4B22
:100A4000DA607047002905D0174A12690243164B35
:100A50001A6104E0144A12698243134B1A61704709
:100A6000002905D0104A527A02430F4B5A7204E013
:100A70000D4A527A82430C4B5A7270470A48406AB8
:100A800001210906084308494862704701460020D1
:100A9000054A92680A4201D0012000E00020704718
:100AA0000149887270470000001002401280000067
:100AB00000127A0010B50446E248844208D10121B0
:100AC0008014FFF7B1FF0021A014FFF7ADFF0AE08B
:100AD000DD48844207D101210014FFF7B3FF002154
:100AE0002014FFF7AFFF10BD0021018041800721D6
:100AF000090281800021C180018141818181C18100
:100B000007210182704710B500220288C1239B0192
:100B10001A400B88CC892343CC8823430C89234378
:100B20004C8923438C8923431A4302808288C74B14
:100B30001A408B881A4382800B8A03820288C44B36
:100B40001A404B881A430280838BC24C2340838314
:100B500010BD0021018041808180C180022181601F
:100B6000002181817047F0B58DB005460C4600200C
:100B70000C9002270B9001200A9000260020029082
:100B8000A88BB249BF390840A88302202884A88BCB
:100B90000C90A068022802D100200B9038E0A088B9
:100BA000002802D101200A9001E002200A9003A847
:100BB000FFF720FE03980290E088C11FFF39FA3941
:100BC0000AD1A168029A120A0A235A43104602F077
:100BD000A5FC401D86B20CE00A984101029802F083
:100BE0009DFC0A2148430190A16802F097FC401D3A
:100BF00086B20A21304602F091FC0646F007C00F8B
:100C00000B900B98301AC003070C0B9800020B9046
:100C1000022F01DBFF2F02DD022700200B90E0886E
:100C20000B99084338432884A088A1890843618828
:100C30000843218808430121C90208430C9908434D
:100C40000C900C98A8830DB0F0BD002904D0028848
:100C500040231A43028004E002887D4B3C3B1A404B
:100C600002807047002904D0828810231A438280B2
:100C700004E08288764B0C3B1A4082807047002942
:100C800005D0828B01239B021A43828303E0828B6F
:100C9000714B1A40828370470A46002181886B4B52
:100CA00019400B46134319468180704782886B4B6D
:100CB0001A40828082880A43828070470122920310
:100CC000914204D102880B461A43028003E0028855
:100CD000634B1A40028070475D4AFC3A914205D04E
:100CE0000288FF2301331A43028004E00288584B34
:100CF000FC3B1A4002807047002904D082880423FC
:100D00001A43828003E08288514B1A4082807047E8
:100D1000002904D0828808231A43828004E0828854
:100D20004B4B1B1F1A4082807047002202460C3238
:100D30001170704781817047014600220A460C32CB
:100D4000107870470146888970470288414B1A40E5
:100D5000028002880A4302807047002905D0028879
:100D600001235B031A43028003E002883D4B1A40D3
:100D700002807047018801221203114301807047ED
:100D800002460020012901D0108B00E0908A7047B4
:100D90000146088A7047002A03D083880B4383806A
:100DA00002E083888B438380704782882E4B1A40F1
:100DB000828082880A438280704730B500240023F5
:100DC0000C110125A540ABB2002A03D085881D4334
:100DD000858002E085889D43858030BD0146088975
:100DE0000322D202104070470146088903225202B2
:100DF000104070470246002013890B4201D00120A9
:100E000000E000207047CA4302817047F0B50246F7
:100E100000200024002300250F073F0F0126BE40BD
:100E2000B4B20B1101269E40B3B296881E403546DF
:100E30001689264203D0002D01D0012000E00020B9
:100E4000F0BD00000030014000380040FFF000001D
:100E5000FBFF0000FFF70000FFFB0000FFEF0000BA
:100E6000FFBF0000FFDF0000FF9F000010B5044639
:100E7000F648844209D101218803FFF7D5FD0021FE
:100E800001208003FFF7D0FD0BE0F148844208D138
:100E900001214804FFF7D6FD002101204004FFF79F
:100EA000D1FD10BDF0B589B005460E4600240020E6
:100EB000089000BF00BF28684008400028606C68A8
:100EC00003210903204688430446B06804436C604C
:100ED0002C68E0480440F1687068084331690843B1
:100EE00004432C60AC680321090220468843044671
:100EF00070690443AC606846FFF77CFCD3488542C8
:100F000002D10698089001E0029808902868012113
:100F1000C903084209D0326851001923089A5A437C
:100F2000104602F0FBFA074608E0326891001923E8
:100F3000089A5A43104602F0F1FA074664213846EF
:100F400002F0ECFA0401200964214843381A0790A2
:100F500028680121C90308420AD00799C900084638
:100F60003230642102F0DAFA4007400F044309E00E
:100F70000799090108463230642102F0CFFA0007D0
:100F8000000F0443AC8109B0F0BD4B21C9010160E1
:100F9000002141608160C1600C210161002141613B
:100FA000704710B5002242680F2424021346A34361
:100FB0001A464C680B6823438C682343CC68234350
:100FC0001A43426010BD0021016041608160C16030
:100FD0007047002904D0026801231A43026003E02D
:100FE00002685208520002607047002A03D003686A
:100FF0000B43036002E003688B43036070470029E2
:1010000005D002680123DB031A43026004E0026892
:101010000123DB039A4302607047002905D08268F0
:101020000123DB021A43826004E082680123DB02B1
:101030009A4382607047002905D042680123DB048F
:101040001A43426004E042680123DB049A43426091
:101050007047002905D0426801239B041A4342606F
:1010600004E0426801239B049A4342607047002ACF
:1010700003D043680B43436002E043688B43436003
:101080007047002905D042680123DB031A43426000
:1010900004E042680123DB039A4342607047002961
:1010A00005D042680123DB051A43426004E0426830
:1010B0000123DB059A43426070474269120E120613
:1010C000426142690A4342617047028AFF231B0260
:1010D0001A400282028A0A4302827047002904D021
:1010E000026802231A43026003E0026802239A4363
:1010F00002607047826803231B059A4382608268FE
:101100000A4382607047002905D0426801231B050D
:101110001A43426004E0426801231B059A4342607F
:101120007047426803235B059A43426042680A4362
:1011300042607047C1690122D2039143C161704787
:10114000CA05D20D028570470146888CC005C00DC6
:10115000704742681202120A426042680B061A4344
:1011600042607047002905D0026801235B031A43DF
:10117000026004E0026801235B039A430260704747
:1011800002680123DB029A43026002680A4302609C
:101190007047426810239A43426042680A434260A3
:1011A0007047426820239A43426042680A43426083
:1011B0007047002905D0426801239B031A4342600F
:1011C00004E0426801239B039A4342607047002970
:1011D00004D0826808231A43826003E082680823EF
:1011E0009A4382607047028AD2B20282028A0B025C
:1011F0001A4302827047002904D0826820231A43D0
:10120000826003E0826820239A438260704700294D
:1012100004D0826810231A43826003E0826810239E
:101220009A4382607047826807235B049A43826016
:1012300082684B041A438260704742691202120AA4
:10124000426142690B061A4342617047003801400F
:1012500000440040F3E9FFFF826804239A43826060
:1012600082680A4382607047002904D082680223A2
:101270001A43826003E0826802239A4382607047C7
:10128000002905D0826801239B031A43826004E091
:10129000826801239B039A4382607047826801231E
:1012A000DB039A43826082680A4382607047026867
:1012B0001F235B059A43026002684B051A430260D4
:1012C000704702681F231B049A43026002680B04E4
:1012D0001A4302607047002A03D083680B4383607F
:1012E00002E083688B4383607047826801235B035D
:1012F0009A43826082680A4382607047F8B5034669
:101300000024002600960025002018460E04340E06
:10131000CEB200960127009EB7403D46022C01D177
:10132000001D02E0032C00D10830002A03D006681B
:101330002E43066002E00668AE430660F8BD002A50
:1013400003D0038B0B43038302E0038B8B430383A4
:101350007047826801231B039A43826082680A43B4
:101360008260704702460020D3690B4201D0012001
:1013700000E0002070470162704770B502460B46DE
:1013800000240021002500201E04350ED9B20126BC
:101390008E403146012D02D11668314006E0022D03
:1013A00002D15668314001E0966831401C0C01269C
:1013B000A6403446D6693440002903D0002C01D021
:1013C000012000E0002070BD10B5002300220B0CAE
:1013D00001249C402246026210BD00003D483E4967
:1013E0000860002048608860C8603C4848617047D9
:1013F000002139498279002A35D00A4612680368EB
:101400009A430B461A600A46526803689A430B4691
:101410005A60027951180A6803681A430A602E4A12
:10142000926803689A432C4B9A601A46D268036804
:101430009A43294BDA604279102A0CD11A469268F5
:1014400003681A43244B9A601A46D26803681A4309
:10145000214BDA600DE02049427951180A6803688F
:101460001A430A6005E0027951180A6803689A4332
:101470000A6070470021016001710C214171002157
:1014800081717047144909690143134A116170471A
:1014900001460020104A52690A4201D0012000E0B2
:1014A000002070470C494861704701460020002227
:1014B000094B1B680B401A46074B5B690B4203D074
:1014C000002A01D0012000E0002070470249486155
:1014D000704700000000940F00040140FFFF6B0004
:1014E00010B50446F948844209D101214805FFF7A7
:1014F000A9FA002101204005FFF7A4FA08E0012124
:101500008805FFF79FFA002101208005FFF79AFA6E
:1015100010BD10B50A46002103685B085B0003603C
:101520000168EB4B19409468240253682343194324
:1015300001600F2424061368A34303610368012498
:101540002343036000218160C160146993692343D0
:101550001946816083680124E40323438360D168D2
:1015600003680B4303604168DA4B19405369194320
:10157000416010BD0021016041608160C160016176
:101580000121C9034161002181617047002904D014
:10159000026801231A43026003E002685208520005
:1015A00002607047002905D0026801235B031A43DB
:1015B000026004E0026801235B039A430260704703
:1015C000002A03D003680B43036002E003688B43E7
:1015D00003607047002905D0026801235B049A4329
:1015E000026004E0026801235B041A430260704752
:1015F000002905D0026801239B041A43026004E01D
:10160000026801239B049A4302607047002905D0B9
:10161000C2680123DB031A43C26004E0C2680123ED
:10162000DB039A43C260704770B50B460021C16866
:10163000A94C2140FE241C401502072636023540E5
:101640002C432143C16070BD002905D002680123ED
:10165000DB041A43026004E002680123DB049A43BE
:1016600002607047002905D0026801231B041A4359
:10167000026004E0026801231B049A430260704781
:101680000A4600214168890A890293059B0D194386
:1016900041607047002905D042680123DB021A43EC
:1016A000426004E042680123DB029A4342607047D3
:1016B000002905D0426801235B061A43426004E01A
:1016C000426801235B069A4342607047002905D0B7
:1016D000426801231B061A43426004E0426801236A
:1016E0001B069A434260704710B50A4600214168C4
:1016F000FF2424040B46A343194613042340194333
:10170000416010BD002905D1426801239B029A4324
:10171000426004E0426801239B021A434260704722
:10172000002905D0426801235B031A43426004E0AC
:10173000426801235B039A4342607047002905D049
:10174000426801239B031A43426004E0426801237C
:101750009B039A4342607047002905D042680123E9
:101760001B031A43426004E0426801231B039A43AF
:1017700042607047002905D042680123DB039A4389
:10178000426004E042680123DB031A434260704771
:10179000014688697F2252041040000C704710B542
:1017A0000146002200208B690124240423401A46AC
:1017B000002A00D101E00120800210BDF0B50C46E6
:1017C00000214168454D2940A505AD0D1604FF27B0
:1017D0003F043E4035431D43059E35432943416048
:1017E000F0BD002905D0026801239B051A43026061
:1017F00004E0026801239B059A43026070470029B8
:1018000005D042690123DB031A43426104E04269C7
:101810000123DB039A4342617047002905D04269E6
:101820000123DB071A43426103E042695200520878
:1018300042617047002905D0426901231B031A4306
:10184000426104E0426901231B039A4342617047ED
:101850000A4600214169090B090313051B0D1943B1
:101860004161704710B50A46002141691C4B19407F
:1018700013041B4CE44323401943416110BD00296C
:1018800005D002680123DB051A43026004E0026808
:101890000123DB059A4302607047002905D00268E6
:1018A00001239B061A43026004E0026801239B06A1
:1018B0009A43026070470146086AC0B27047024608
:1018C000002313465B18186870470000005400405E
:1018D000FFE0CF00FF7FFF0701F8FFFF009800FC4B
:1018E000FFFF00F0816270470146486AC0B270474E
:1018F000002A03D003680B43036002E003688B43B4
:101900000360704710B502460023002093691C460F
:101910000C402346002B01D0012000E0002010BD28
:10192000C161704710B502460023002093691C4630
:101930000C402346002B01D0012000E0002010BD08
:10194000C161704700218278002A27D0274A0323EB
:101950001B02D21803789B109B00D1580278920783
:10196000D30EFF229A400B469343194642789207C2
:10197000120E03789B07DB0E9A4011431B4A032388
:101980001B02D21803789B109B00D1500278D3061B
:10199000DB0E01229A40154B1A6007E00278D3064D
:1019A000DB0E01229A40114B80331A6070470029E8
:1019B00005D00F4A126902430D4B1A6104E00C4A2C
:1019C000126982430A4B1A617047042806D10949FB
:1019D000096904221143074A116105E005490969B3
:1019E00004229143034A11617047000000E100E0C6
:1019F00000ED00E000E000E03A4800688007800F5A
:101A0000384908600020886000213648C1600161C3
:101A100041618069FF210131084332498861704783
:101A2000014600202F4A10688008800002460A43C1
:101A300010462C4A10607047002905D0294A1268C8
:101A40000243284B1A6004E0264A12688243254B61
:101A50001A607047002905D0224A12680243214BC0
:101A60001A6004E01F4A126882431E4B1A607047D6
:101A700030B500228B071C0F0F23A3401A46194BC9
:101A800008338C10A4001B599343164C08348D1056
:101A9000AD00635123468C10A4001B598C07250F01
:101AA0000446AC4023430F4C08348D10AD00635105
:101AB00030BD0C49896901430A4A9161704701466A
:101AC0000020084A9269FF2301331A4201D0012005
:101AD00000E000207047034989690143014A916190
:101AE00070470000000001401CB501214804FEF7CA
:101AF00063FF1020009001216846417101710021AF
:101B0000817169460920C006FEF730FC1CBD10B586
:101B100010210920C006FEF7A0FC10BD10B5102151
:101B20000920C006FEF797FC10BD0000284909886F
:101B30004143491E274A51610121916111460969BA
:101B400001221143234A116100BF22490969012280
:101B500012041142F9D01F490969490849001D4A78
:101B6000116170471B49096904229143194A1161A7
:101B70001146096902229143164A1161C217520F98
:101B80001218D210144B1A70194609787D22D2000F
:101B900051430F4A118070470F4909784143491E4C
:101BA0000C4A5161012191611146096901221143D9
:101BB000084A116100BF0749096901221204114254
:101BC000F9D00449096949084900024A116170477E
:101BD0001400002000E000E01600002070B505466B
:101BE0000C46284601F0B6F8C0B2207070BD70B542
:101BF00004460D462946204601F0BEF870BD10B5DA
:101C0000044621460F20FFF7E9FF002800D110BD50
:101C10000120FCE710B5044621460720FFF7DEFF50
:101C2000002800D110BD0120FCE738B505460C4660
:101C300069460720FFF7D2FF002800D138BD802D6C
:101C40000CD16946087880210840009002D001201C
:101C50002070F3E7002020700120EFE7402D0CD129
:101C60006946087840210840009002D00120207089
:101C7000E4E7002020700120E0E7202D0CD1694628
:101C8000087820210840009002D001202070D5E77C
:101C9000002020700120D1E7102D0CD16946087872
:101CA00010210840009002D001202070C6E70020DB
:101CB00020700120C2E7082D0CD169460878082160
:101CC0000840009002D001202070B7E7002020706B
:101CD0000120B3E7042D0CD169460878042108409F
:101CE000009002D001202070A8E700202070012081
:101CF000A4E7022D0CD16946087802210840009023
:101D000002D00120207099E700202070012095E783
:101D1000012D0CD168460078C107C90F009102D08F
:101D2000012020708AE700202070012086E7002033
:101D300084E738B5044669462020FFF74FFF0028A6
:101D400000D138BD684600780107090F00912101D4
:101D5000684600780143C9B20091684601782020A6
:101D6000FFF745FF002800D1EBE70120E9E738B590
:101D7000044669461F20FFF731FF002800D138BD17
:101D800068460178BF2001400091A10168460078B3
:101D90000143C9B20091684601781F20FFF727FF71
:101DA000002800D1EBE70120E9E738B50446694691
:101DB0001F20FFF713FF002800D138BD68460078C8
:101DC0004106490E0091E101684600780143C9B21D
:101DD0000091684601781F20FFF709FF002800D115
:101DE000EBE70120E9E71CB5044601A90820FFF74D
:101DF000F5FE002800D11CBD69460920FFF7EEFE64
:101E0000002800D1F7E76A461178090212791143D8
:101E10000846C917090F09180911218001A90A20CC
:101E2000FFF7DCFE002800D1E5E769460B20FFF74D
:101E3000D5FE002800D1DEE76A4611780902127942
:101E400011430846C917090F09180911618001A932
:101E50000C20FFF7C3FE002800D1CCE769460D2017
:101E6000FFF7BCFE002800D1C5E76A4611780902D9
:101E7000127911430846C917090F09180911A180E1
:101E80000120B8E71CB5044601A90C20FFF7A6FE07
:101E9000002800D11CBD69460D20FFF79FFE0028D9
:101EA00000D1F7E76846007840B220700120F1E7E2
:101EB0001CB5044601A92020FFF790FE002800D1A0
:101EC0001CBD69462320FFF789FE002800D1F7E7F3
:101ED00068460079F021084206D1F74800780840AA
:101EE0006946097908430190002C04D0012C1ED0CA
:101EF000022C2FD109E068460079EF490870684646
:101F000000790107090F019126E068460179F72061
:101F1000014001916846017901910178F720014063
:101F200000916846007808210843009014E0684654
:101F30000179F720014001916846017908200143A9
:101F4000019168460178F7200140009168460078C9
:101F5000009001E00020B3E700BF6846017920202F
:101F6000FFF745FE002800D1AAE768460178232044
:101F7000FFF73DFE002800D1A2E70120A0E738B519
:101F8000044669462020FFF729FE002800D138BD0D
:101F900068460178F820014000916107490F6846C2
:101FA000007801430091684601782020FFF71FFE6A
:101FB000002800D1EBE70120E9E738B5044669467F
:101FC0002320FFF70BFE002800D138BD68460178BA
:101FD000CF20014000912101684600780143C9B239
:101FE0000091684601782320FFF701FE002800D108
:101FF000EBE70120E9E738B5044669462320FFF7FF
:10200000EDFD002800D138BD684600784106490E34
:102010000091E101684600780143C9B20091684629
:1020200001782320FFF7E3FD002800D1EBE7012032
:10203000E9E738B5044669462320FFF7CFFD0028BD
:1020400000D138BD68460178BF2001400091A10150
:10205000684600780143C9B20091684601782320A0
:10206000FFF7C5FD002800D1EBE70120E9E738B50F
:10207000044669462320FFF7B1FD002800D138BD92
:1020800068460178F92001400091610068460078B7
:102090000143C9B20091684601782320FFF7A7FDEC
:1020A000002800D1EBE70120E9E738B5044669468E
:1020B0002120FFF793FD002800D138BD6846017844
:1020C000FB2001400091A100684600780143C9B29D
:1020D0000091684601782120FFF789FD002800D192
:1020E000EBE70120E9E738B5044669462120FFF710
:1020F00075FD002800D138BD68460178FE200140FA
:102100000091684601782143009101782120FFF772
:102110006EFD002800D1EEE70120ECE738B504465B
:1021200069462120FFF75AFD002800D138BD6846D6
:102130000178FD200140009161006846007801436C
:10214000C9B20091684601782120FFF750FD0028B0
:1021500000D1EBE70120E9E738B5044669462120C4
:10216000FFF73CFD002800D138BD684600788106A5
:10217000890E0091A101684600780143C9B200911F
:10218000684601782120FFF732FD002800D1EBE7F7
:102190000120E9E738B50446032C01DD002038BDF5
:1021A00069462120FFF71AFD002800D1F7E76846AD
:1021B0000178CF2001400091210168460078014359
:1021C000C9B20091684601782120FFF710FD002870
:1021D00000D1E4E70120E2E738B504466946212052
:1021E000FFF7FCFC002800D138BD68460178F720D5
:1021F00001400091E100684600780143C9B20091B6
:10220000684601782120FFF7F2FC002800D1EBE7B7
:102210000120E9E738B5044669462220FFF7DEFCD5
:10222000002800D138BD0021009168460178214383
:10223000009101782220FFF7DAFC002800D1F1E7B5
:102240000120EFE738B5044669462520FFF7C6FCB4
:10225000002800D138BD0021009168460178214353
:10226000009101782520FFF7C2FC002800D1F1E79A
:102270000120EFE738B5044669463820FFF7AEFC89
:10228000002800D138BD68460178C0200140009187
:10229000684601782143009101783820FFF7A7FCB8
:1022A000002800D1EEE70120ECE710B504467F2CB2
:1022B00004DD002010BD00001700002021463A2058
:1022C000FFF795FC002800D1F4E70120F2E710B5F4
:1022D00004467F2C01DD002010BD21463B20FFF786
:1022E00086FC002800D1F7E70120F5E710B5044689
:1022F00021463C20FFF77BFC002800D110BD0120C7
:10230000FCE710B5044621463D20FFF770FC00288D
:1023100000D110BD0120FCE738B5044669463920DC
:10232000FFF75CFC002800D138BD68460078410604
:10233000490E0091684600784021084203D10020F0
:1023400020700120F0E768460078202108423AD04A
:1023500068460078082108421AD0684600780421AF
:10236000084203D02C2020700120DDE76846007869
:102370000221084203D02A2020700120D4E76846B9
:102380000078C007C00F59D0292020700120CBE76A
:10239000684600780421084203D0242020700120E0
:1023A000C2E7684600780221084203D0222020704C
:1023B0000120B9E768460078C007C00F3ED0212051
:1023C00020700120B0E768460078082108421AD042
:1023D000684600780421084203D01C2020700120A8
:1023E000A2E7684600780221084203D01A20207034
:1023F000012099E768460078C007C00F1ED0192059
:102400002070012090E7684600780421084203D03C
:1024100014202070012087E76846007802210842D6
:1024200003D01220207001207EE768460078C007A4
:10243000C00F03D011202070012075E7002073E742
:1024400038B5044669462420FFF7C8FB002800D1B0
:1024500038BD68460178F72001400091E1006846E8
:1024600000780143C9B20091684601782420FFF743
:10247000BEFB002800D1EBE70120E9E708B569467B
:102480003120FFF7ABFB002800D108BD0120FCE79D
:1024900038B5044669463020FFF7A0FB002800D17C
:1024A00038BD6846017840200140009168460178B7
:1024B0002143009101783020FFF799FB002800D1DB
:1024C000EEE70120ECE738B5044669463020FFF717
:1024D00085FB002800D138BD684600788106890E4A
:1024E0000091A101684600780143C9B20091684695
:1024F00001783020FFF77BFB002800D1EBE70120BB
:10250000E9E71CB5044601A93020FFF767FB002866
:1025100000D11CBD69462420FFF760FB002800D1D4
:10252000F7E7012C11D168460179BF2001400191E4
:102530006846017940200143019168460178FB20FB
:1025400001400091684600780090022C13D1684643
:102550000179BF2001400191684601794020014383
:10256000019168460178FB2001400091684600789F
:10257000042108430090002C0ED168460179BF2049
:10258000014001916846017901910178FB200140E9
:102590000091684600780090684601793020FFF786
:1025A00026FB002800D1B4E7684601782420FFF715
:1025B0001EFB002800D1ACE70120AAE738B504468D
:1025C00069463120FFF70AFB002800D138BD684674
:1025D00000784106490E009168460078482815D0D9
:1025E00006DC41280FD042280AD0442817D104E045
:1025F000502811D0602812D10BE0442020700EE04A
:10260000422020700BE04120207008E0482020701C
:1026100005E06020207002E05020207000BF00BF65
:102620000120D3E710B504467F2C01DD002010BD4A
:1026300021463220FFF7DBFA002800D1F7E701201E
:10264000F5E710B504467F2C01DD002010BD2146C2
:102650003320FFF7CCFA002800D1F7E70120F5E797
:1026600038B50446042C29D169462E20FFF7B6FA66
:10267000002800D138BD68460078C106C90E009117
:1026800068460178009101782E20FFF7B0FA002803
:1026900000D1EFE769462420FFF7A0FA002800D117
:1026A000E8E768460178BF2001400091684601785C
:1026B0002420FFF79CFA002800D1DBE7002C32D160
:1026C00069462420FFF78AFA002800D1D2E768463D
:1026D0000178BF2001400091684601784020014305
:1026E0000091684601782420FFF781FA002800D184
:1026F000C0E769462E20FFF771FA002800D1B9E73C
:1027000068460078C106C90E0091A10168460078AC
:102710000143C9B20091684601782E20FFF767FA9D
:10272000002800D1A6E7012C32D169462420FFF70A
:1027300055FA002800D19DE768460178BF20014086
:102740000091684601784020014300916846017875
:102750002420FFF74CFA002800D18BE769462E2091
:10276000FFF73CFA002800D184E768460078C106EC
:10277000C90E0091A101684600780143C9B20091D9
:10278000684601782E20FFF732FA002800D171E761
:10279000022C32D169462420FFF720FA002800D10C
:1027A00068E768460178BF200140009168460178DB
:1027B000402001430091684601782420FFF717FA72
:1027C000002800D156E769462E20FFF707FA0028B7
:1027D00000D14FE768460078C106C90E0091A101FB
:1027E000684600780143C9B20091684601782E20FE
:1027F000FFF7FDF9002800D13CE7032C32D16946F0
:102800002420FFF7EBF9002800D133E76846017870
:10281000BF200140009168460178402001430091AB
:10282000684601782420FFF7E2F9002800D121E76B
:1028300069462E20FFF7D2F9002800D11AE7684632
:102840000078C106C90E0091A101684600780143D5
:10285000C9B20091684601782E20FFF7C8F9002818
:1028600000D107E7012005E738B5044669462E2068
:10287000FFF7B4F9002800D138BD68460178DF20A1
:10288000014000916101684600780143C9B200919E
:10289000684601782E20FFF7AAF9002800D1EBE75F
:1028A0000120E9E738B504461F2C01DD002038BDC2
:1028B00069462E20FFF792F9002800D1F7E7684615
:1028C0000178E020014000916846017821430091A1
:1028D00001782E20FFF78BF9002800D1E7E70120CF
:1028E000E5E710B5044621462720FFF777F90028D1
:1028F00000D110BD0120FCE738B505460C466946FD
:102900002720FFF76BF9002800D138BD102D36D0F5
:1029100008DC012D67D0022D58D0042D49D0082D98
:102920006ED139E0202D1DD0402D0ED0802D67D1E5
:102930006946087880210840009002D0012020706C
:10294000E3E7002020700120DFE769460878402196
:102950000840009002D001202070D6E700202070AF
:102960000120D2E76946087820210840009002D073
:1029700001202070C9E7002020700120C5E76946CA
:10298000087810210840009002D001202070BCE798
:10299000002020700120B8E7694608780821084027
:1029A000009002D001202070AFE7002020700120AD
:1029B000ABE76946087804210840009002D0012066
:1029C0002070A2E70020207001209EE76946087869
:1029D00002210840009002D00120207095E70020DD
:1029E0002070012091E768460078C107C90F009167
:1029F00002D00120207088E700202070012084E7A9
:102A0000002082E7F8B504466D466E1C2946282052
:102A1000FFF7E4F8002800D1F8BD31462920FFF780
:102A2000DDF8002800D1F7E769460020085E208025
:102A300029462A20FFF7D2F8002800D1ECE73146DA
:102A40002B20FFF7CBF8002800D1E5E769460020EE
:102A5000085E608029462C20FFF7C0F8002800D1CE
:102A6000DAE731462D20FFF7B9F8002800D1D3E787
:102A700069460020085EA0800120CDE710B504461D
:102A800021463120FFF7AAF8002800D110BD01200F
:102A9000FCE738B505460C4669463120FFF79EF83D
:102AA000002800D138BD402D0CD16946087840215E
:102AB0000840009002D001202070F3E70020207031
:102AC0000120EFE7202D0CD169460878202108402D
:102AD000009002D001202070E4E700202070012047
:102AE000E0E7102D0CD169460878102108400090CD
:102AF00002D001202070D5E7002020700120D1E70E
:102B0000082D0CD16946087808210840009002D0B1
:102B100001202070C6E7002020700120C2E7042DAC
:102B20000CD16946087804210840009002D00120A9
:102B30002070B7E7002020700120B3E7022D0CD1F0
:102B40006946087802210840009002D001202070D8
:102B5000A8E7002020700120A4E7012D0CD16846D1
:102B60000078C107C90F009102D00120207099E7B9
:102B700000202070012095E7002093E710B504465F
:102B800021462F20FFF72AF8002800D110BD012090
:102B9000FCE738B505460C4669462F20FFF71EF8BE
:102BA000002800D138BD802D0CD1694608788021DD
:102BB0000840009002D001202070F3E70020207030
:102BC0000120EFE7402D0CD16946087840210840EC
:102BD000009002D001202070E4E700202070012046
:102BE000E0E7202D0FD101D1012000E0002069464F
:102BF00009780840009002D001202070D2E7002020
:102C000020700120CEE70020CCE738B504466946A5
:102C10002F20FEF7E3FF002800D138BD684600787A
:102C2000C106C90E00916846007820700120F4E7C3
:102C300038B5044669462320FEF7D0FF002800D1AE
:102C400038BD68460178FE20014000916846017851
:102C50002143009101782320FEF7C9FF002800D10D
:102C6000EEE70120ECE7000000B587B0012121204C
:102C70000003FDF7AFFEE0200090022168460171DD
:102C800000218171C1710321417169460920C0068B
:102C9000FDF76CFB102000900121684601710021B6
:102CA000817169460920C006FDF760FB00F0BEF89F
:102CB000002168460181FF21053141810721090278
:102CC00081810221C18101210182490241821021B9
:102CD00081820021C1820721018302A95748FDF7A3
:102CE00012FF01215548FDF7B0FF07B000BD1CB52C
:102CF000E020009000216846017101218171694640
:102D00000920C006FDF732FB102000900021684624
:102D100001710121817169460920C006FDF726FB7A
:102D20001CBD10B5044600BF02214448FEF762F8FE
:102D30000028F9D021464148FDF7FCFF00BF0121E2
:102D40003E48FEF757F80028F9D03C48FDF7FAFF57
:102D5000C0B210BD70B5044620468030C4B200F049
:102D60005EF82046FFF7DDFFA520FFF7DAFF0546F6
:102D700000F05CF8284670BD70B505460C4600F0C2
:102D80004EF82846FFF7CDFF2046FFF7CAFF00F0B8
:102D90004DF870BDF8B505460E4617460024284686
:102DA000C030C5B200F03BF82846FFF7BAFF05E097
:102DB000A520FFF7B6FF3855601CC4B2B442F7DB5C
:102DC00000F034F8F8BDF8B507460D461646002465
:102DD00000F025F83846FFF7A4FF05E0A520FFF72F
:102DE000A0FF3055601C84B2AC42F7DB00F01EF847
:102DF000F8BDF8B507460C461546002600F00FF85A
:102E00003846FFF78EFF05E03146721C96B2685CCB
:102E1000FFF787FFA642F7DB00F008F8F8BD10B512
:102E200010210920C006FDF718FB10BD10B51021B8
:102E30000920C006FDF70FFB10BD00000030014067
:102E40001CB50446A100FE4A50580121FDF7B4FD0F
:102E50006000FC49085A0090012168460171002178
:102E60008171C17103214171A100F74A505869462F
:102E7000FDF77CFA6000F349085AA100F24A515864
:102E800088611CBD4100EF4A515A8200EE4B9A58AE
:102E9000118570474100EB4A515A8200EA4B9A581B
:102EA000916170478100E84A5158898A4200E54B98
:102EB0009A5A51408200E44B9A589182704730B53B
:102EC00085B004460D46A100E04A50580121FDF7A7
:102ED00073FD01210846FDF77DFD00216846017460
:102EE000C1746000DA49085A0390A100D94A5058C9
:102EF00003A9FDF73BFA012D26D1D74A115DD74A28
:102F0000105DFEF7B5FD6000D549085A019000201C
:102F100069460872002C04D0012C02D008204872A7
:102F200002E00C206946487201216846817201A8BE
:102F3000FEF75EFACB48015D6846017003214170DF
:102F400001218170FEF7FEFC05B030BD10B50446CE
:102F50006200BF4B995AA200BE4B9858FDF763FA26
:102F600010BD7CB504460D46A100BF4A5158A200D1
:102F7000BE4B9A58114308460121FDF71DFDA100E3
:102F8000BB4A50580121FDF725FDBA4B1A5DBA4BDB
:102F9000195DA300B94EF058FDF769FAB84B1A5DF8
:102FA000B84B195DA300B84EF058FDF760FA600009
:102FB000B649085A00900221684601710121417109
:102FC000002181710121C171A100AC4A50586946AC
:102FD000FDF7CCF96000AE49085A0090A1003246D6
:102FE00050586946FDF7C2F9A100AA4A505829462F
:102FF000FDF758FFA100A74A50580121FDF7E9FF4E
:103000007CBD1CB50021A448FDF71FFEA248FDF7BA
:1030100051FD002101200003FDF7DCFC2020009081
:10302000002168460171C17169460920C006FDF79B
:103030009DF91020009069469848FDF797F9802087
:10304000009069460920C006FDF790F92020009005
:1030500069469348FDF78AF90120C003009069464C
:103060008E48FDF783F91CBD00B587B001212320F0
:103070004004FDF7A1FC01210803FDF7ABFC202073
:103080000590022168460176032141760021817670
:103090000121C17605A90920C006FDF767F91020B6
:1030A000059005A97D48FDF761F98020059005A9E7
:1030B0000920C006FDF75AF9202005900121684635
:1030C0000176002181760121C176417605A97448F7
:1030D000FDF74CF90120C0030590002168460176F8
:1030E0000121C17605A96D48FDF740F900220521AF
:1030F0000920C006FDF7BBF9002204216748FDF74F
:10310000B6F9002207210920C006FDF7B0F9624890
:10311000FDF7D0FC002168460180FF210531418088
:103120000721090281800221C18001210181490218
:10313000418100218181C181072101826946564870
:10314000FDF7E1FC012109035348FDF7AFFD012123
:103150005148FDF77AFD07B000BD1CB5002151486C
:10316000FEF714FA4F48FEF7BBF900210120400595
:10317000FDF73EFC40200090002168460171C171BE
:1031800069464648FDF7F2F88020009069464348BA
:10319000FDF7ECF82020009069464048FDF7E6F87E
:1031A0001CBD1CB501214805FDF722FC0020FDF7E0
:1031B0000BFB01218804FDF7FFFB012206213748A4
:1031C000FDF755F9012207213448FDF750F9032294
:1031D00005213248FDF74BF9402000900221684656
:1031E00001714171012181710021C17169462B4832
:1031F000FDF7BCF88020009069462848FDF7B6F836
:103200002020009069462548FDF7B0F81CBD1CB58C
:1032100000212448FEF7BAF92248FEF761F900219F
:1032200001204005FDF7E4FB4020009000216846A6
:103230000171C17169461948FDF798F8802033E0A3
:1032400004390008FC380008180000202439000860
:103250001439000828000020553900084E390008AC
:10326000403900085C390008683900086C390008EA
:1032700064390008763900087439000848000020D5
:1032800077390008753900084C00002070390008B3
:10329000723900084400002000300140000400485A
:1032A0000014004800540040009069461748FDF79C
:1032B0005DF81CBD1CB50020FDF786FA01218804CD
:1032C000FDF77AFB01214805FDF792FB012206215B
:1032D0000E48FDF7CCF8012207210C48FDF7C7F88E
:1032E00040200090022168460171417101218171E5
:1032F0000021C17169460548FDF738F8802000902B
:1033000069460248FDF732F81CBD00000004004881
:103310000448804704480047FEE7FEE7FEE7FEE773
:10332000FEE7FEE7F5330008B100000800210020A9
:10333000724A126801231B041A43704B1A6000BFC3
:103340006E4A126801235B041A401046491C00288B
:1033500003D1052212039142F2D1684A1268012377
:103360005B041A4201D0012000E00020012840D176
:10337000634A126810231A43614B1A601A46126896
:1033800001231A435E4B1A605C4A52685B4B5A60D9
:103390001A4652685A601A4652683F231B049A43E1
:1033A000564B5A601A46526811231B041A43534B5A
:1033B0005A601A46126803061A43504B1A6000BF3F
:1033C0004E4A126801235B061A42F9D04B4A5268F2
:1033D00092089200494B5A601A46526802231A43D7
:1033E000464B5A6000BF454A52680C231A40082ACF
:1033F000F9D1704710B541480068012108433F49A1
:103400000860084640683F4908403C494860084613
:1034100000683D49084039490860084600680121B4
:103420008904884335490860084640683F210904FB
:103430008843324948600846C06A00090001C862F2
:103440000846006BFF21543188432C490863084625
:10345000406B40084000486300208860FFF766FF2B
:1034600010BDF8B500250024002600272348406839
:103470000C2108400546002D04D0042D06D0082D4F
:103480002AD107E021482249086029E01F48204945
:10349000086025E0194840680F2189040840044667
:1034A000164840680121090408400646A00C841C07
:1034B000002E04D117486043154908600BE00F48FF
:1034C000C06A0007000F471C3946104800F026F874
:1034D00060430F49086003E00C480D49086000BFD5
:1034E00000BF06484068F021084000090A490D5C09
:1034F00007480068E84006490860F8BD001002402F
:10350000002002400CB8FFF8FFFFF6FE00127A0020
:103510005000002000093D005400002030B50B464B
:10352000014600202022012409E00D46D5409D429D
:1035300005D31D469540491B254695404019154623
:10354000521E002DF1DC30BD064C0125064E05E073
:103550002046E36807C82B4398471034B442F7D39A
:10356000FCF7AAFD78390008983900080FB410B5A7
:1035700003A9044B044A029800F018F810BC08BCD8
:1035800004B01847C50000086400002002E008C825
:10359000121F08C1002AFAD170477047002001E0CD
:1035A00001C1121F002AFBD170470000FFB58FB088
:1035B00005460026E7E025287ED100246D1CBB4A85
:1035C0000294012100942B780846203B9840034642
:1035D000134202D004436D1CF5E728782A280ED048
:1035E0000222287801463039092916D802990A237F
:1035F00059433039401814436D1C0290F1E710987C
:1036000002C802911090002904DA0120400304430B
:1036100048420290022004436D1C28782E2817D1BE
:10362000042004436D1C28782A280CD110986D1CA6
:1036300002C8009110900BE000990A2251433039E2
:1036400040186D1C00902878014630390929F3D9BB
:1036500028786C2810D006DC4C281AD068280ED0A8
:103660006A2817D104E0742813D07A2812D110E008
:103670000120400504430CE00121090501E003217C
:1036800009050C436978814203D101206D1C0005B6
:1036900024186D1C287869287ED007DC002878D093
:1036A000632829D0642807D176E005E06E2808D089
:1036B00073282DD075286BD0129A11999047761CDB
:1036C00060E06002400F022809D003280DD00428D2
:1036D000109801680DD0001D0E60109052E01098F7
:1036E000F21702C80E604A60F7E7109802C80E8011
:1036F000F3E7001D0E70F0E710986A460178001D90
:10370000117310900020507303A80190012005E070
:10371000109802C8019110900020C04361070CD599
:10372000002700E07F1C00998F420FDA8742F9DB07
:103730000199C95D0029F5D108E0002700E07F1C50
:103740008742FCDB0199C95D0029F8D10298214626
:10375000C01B0290129B119A00F0BAF88019C6198A
:1037600007E0019801990078491C0191129A11997A
:1037700090477F1EF5D22146129B119A029800F0C5
:1037800097F886196D1C2878002802D013E700E00E
:1037900022E0304613B0F0BD0A200190109901C913
:1037A00010916102490F032900D100B2042900D110
:1037B00040B2002802DA40422D2102E0210504D562
:1037C0002B216A461173012103E0E10711D020216A
:1037D000F7E70CAF0C9114E00A200190109901C991
:1037E00010916102490F032900D180B2042900D150
:1037F000C0B20021EDE70199FFF790FE30317F1E46
:1038000039700028F7D104A8C01B20300190600750
:1038100004D5012000048443009801E001200090B9
:103820000199884201DD401A00E000204118009013
:103830000C9809180298401A0290E00306D4214619
:10384000129B119A029800F043F88619002008E0B4
:103850000D9903A8405C129A119990470D98761C17
:10386000401C0C990D908842F2DBE0030CD52146F8
:10387000129B119A029800F02BF8861904E0129A14
:10388000302011999047761C0099481E009000291D
:10389000F5DC05E03878129A7F1C11999047761C68
:1038A0000199481E01900029F4DC64E70928010011
:1038B000F8B5044600251E461746880404D405E0E2
:1038C00039462020B0476D1C641EF9D52846F8BD46
:1038D000FFB50446002581B01E46C80301D5302738
:1038E00000E02027880404D505E038460399B04756
:1038F0006D1C641EF9D5284605B0F0BD0004000813
:10390000001004000000080000000800000008008B
:1039100000001000002000010001000240008000B3
:103920000100000000000800000004000000080082
:10393000000008000000080000000800000002006D
:10394000002000010001000240008000010002018F
:1039500002020202000D0808090607000707070710
:103960000707050000400000000002000000020000
:1039700000020004090A0101983900080000002033
:10398000680000008C350008003A0008680000203C
:10399000180400009C350008000000000000000131
:1039A00002030401020304060708090000000000E6
:1039B000000800480008004800080048000C0048C3
:1039C00000080048000400480008004800080048BB
:1039D0000008004800080048000000480038014086
:1039E0000000004800000048006CDC0200000000FD
:1039F000000000000102030406070809000000009F
:04000005080000B13E
:00000001FF
